{
  "contractName": "QuizManager",
  "abi": [
    {
      "inputs": [],
      "stateMutability": "nonpayable",
      "type": "constructor"
    },
    {
      "anonymous": false,
      "inputs": [
        {
          "indexed": true,
          "internalType": "address",
          "name": "user",
          "type": "address"
        },
        {
          "indexed": true,
          "internalType": "uint256",
          "name": "quizId",
          "type": "uint256"
        },
        {
          "indexed": false,
          "internalType": "uint256",
          "name": "amount",
          "type": "uint256"
        }
      ],
      "name": "PaymentReceived",
      "type": "event"
    },
    {
      "anonymous": false,
      "inputs": [
        {
          "indexed": true,
          "internalType": "address",
          "name": "user",
          "type": "address"
        },
        {
          "indexed": true,
          "internalType": "uint256",
          "name": "quizId",
          "type": "uint256"
        },
        {
          "indexed": false,
          "internalType": "uint8",
          "name": "score",
          "type": "uint8"
        }
      ],
      "name": "ScoreRecorded",
      "type": "event"
    },
    {
      "inputs": [],
      "name": "ENTRY_FEE",
      "outputs": [
        {
          "internalType": "uint256",
          "name": "",
          "type": "uint256"
        }
      ],
      "stateMutability": "view",
      "type": "function",
      "constant": true
    },
    {
      "inputs": [],
      "name": "owner",
      "outputs": [
        {
          "internalType": "address",
          "name": "",
          "type": "address"
        }
      ],
      "stateMutability": "view",
      "type": "function",
      "constant": true
    },
    {
      "inputs": [
        {
          "internalType": "address",
          "name": "",
          "type": "address"
        },
        {
          "internalType": "uint256",
          "name": "",
          "type": "uint256"
        }
      ],
      "name": "payments",
      "outputs": [
        {
          "internalType": "bool",
          "name": "paid",
          "type": "bool"
        },
        {
          "internalType": "uint256",
          "name": "timestamp",
          "type": "uint256"
        }
      ],
      "stateMutability": "view",
      "type": "function",
      "constant": true
    },
    {
      "inputs": [
        {
          "internalType": "address",
          "name": "",
          "type": "address"
        },
        {
          "internalType": "uint256",
          "name": "",
          "type": "uint256"
        }
      ],
      "name": "scores",
      "outputs": [
        {
          "internalType": "uint8",
          "name": "",
          "type": "uint8"
        }
      ],
      "stateMutability": "view",
      "type": "function",
      "constant": true
    },
    {
      "inputs": [
        {
          "internalType": "uint256",
          "name": "quizId",
          "type": "uint256"
        }
      ],
      "name": "payForQuiz",
      "outputs": [],
      "stateMutability": "payable",
      "type": "function",
      "payable": true
    },
    {
      "inputs": [
        {
          "internalType": "uint256",
          "name": "quizId",
          "type": "uint256"
        },
        {
          "internalType": "uint8",
          "name": "score",
          "type": "uint8"
        }
      ],
      "name": "recordResult",
      "outputs": [],
      "stateMutability": "nonpayable",
      "type": "function"
    },
    {
      "inputs": [
        {
          "internalType": "address",
          "name": "user",
          "type": "address"
        },
        {
          "internalType": "uint256",
          "name": "quizId",
          "type": "uint256"
        }
      ],
      "name": "hasPaid",
      "outputs": [
        {
          "internalType": "bool",
          "name": "",
          "type": "bool"
        }
      ],
      "stateMutability": "view",
      "type": "function",
      "constant": true
    },
    {
      "inputs": [
        {
          "internalType": "address",
          "name": "user",
          "type": "address"
        },
        {
          "internalType": "uint256",
          "name": "quizId",
          "type": "uint256"
        }
      ],
      "name": "getScore",
      "outputs": [
        {
          "internalType": "uint8",
          "name": "",
          "type": "uint8"
        }
      ],
      "stateMutability": "view",
      "type": "function",
      "constant": true
    },
    {
      "inputs": [],
      "name": "withdraw",
      "outputs": [],
      "stateMutability": "nonpayable",
      "type": "function"
    }
  ],
  "bytecode": "0x608060405234801561001057600080fd5b50336000806101000a81548173ffffffffffffffffffffffffffffffffffffffff021916908373ffffffffffffffffffffffffffffffffffffffff160217905550610c66806100606000396000f3fe6080604052600436106100865760003560e01c80638da5cb5b116100595780638da5cb5b146101455780639d54080a14610170578063ab63385c146101ad578063e5ab8954146101eb578063f6d361cc1461020757610086565b8063278720121461008b5780633ccfd60b146100c857806362174fdd146100df57806376beffad14610108575b600080fd5b34801561009757600080fd5b506100b260048036038101906100ad9190610860565b610232565b6040516100bf91906108bc565b60405180910390f35b3480156100d457600080fd5b506100dd610261565b005b3480156100eb57600080fd5b5061010660048036038101906101019190610903565b610358565b005b34801561011457600080fd5b5061012f600480360381019061012a9190610860565b6104b4565b60405161013c919061095e565b60405180910390f35b34801561015157600080fd5b5061015a61051f565b6040516101679190610988565b60405180910390f35b34801561017c57600080fd5b5061019760048036038101906101929190610860565b610543565b6040516101a491906108bc565b60405180910390f35b3480156101b957600080fd5b506101d460048036038101906101cf9190610860565b6105ab565b6040516101e29291906109b2565b60405180910390f35b610205600480360381019061020091906109db565b6105e9565b005b34801561021357600080fd5b5061021c6107bb565b6040516102299190610a08565b60405180910390f35b60026020528160005260406000206020528060005260406000206000915091509054906101000a900460ff1681565b60008054906101000a900473ffffffffffffffffffffffffffffffffffffffff1673ffffffffffffffffffffffffffffffffffffffff163373ffffffffffffffffffffffffffffffffffffffff16146102ef576040517f08c379a00000000000000000000000000000000000000000000000000000000081526004016102e690610a80565b60405180910390fd5b60008054906101000a900473ffffffffffffffffffffffffffffffffffffffff1673ffffffffffffffffffffffffffffffffffffffff166108fc479081150290604051600060405180830381858888f19350505050158015610355573d6000803e3d6000fd5b50565b600160003373ffffffffffffffffffffffffffffffffffffffff1673ffffffffffffffffffffffffffffffffffffffff168152602001908152602001600020600083815260200190815260200160002060000160009054906101000a900460ff166103f8576040517f08c379a00000000000000000000000000000000000000000000000000000000081526004016103ef90610b12565b60405180910390fd5b80600260003373ffffffffffffffffffffffffffffffffffffffff1673ffffffffffffffffffffffffffffffffffffffff168152602001908152602001600020600084815260200190815260200160002060006101000a81548160ff021916908360ff160217905550813373ffffffffffffffffffffffffffffffffffffffff167fd2948f61045b332d4e1e2e6e0e8bb25cb123a3651d285df93ac4cfbb69e54081836040516104a891906108bc565b60405180910390a35050565b6000600160008473ffffffffffffffffffffffffffffffffffffffff1673ffffffffffffffffffffffffffffffffffffffff168152602001908152602001600020600083815260200190815260200160002060000160009054906101000a900460ff16905092915050565b60008054906101000a900473ffffffffffffffffffffffffffffffffffffffff1681565b6000600260008473ffffffffffffffffffffffffffffffffffffffff1673ffffffffffffffffffffffffffffffffffffffff168152602001908152602001600020600083815260200190815260200160002060009054906101000a900460ff16905092915050565b6001602052816000526040600020602052806000526040600020600091509150508060000160009054906101000a900460ff16908060010154905082565b670de0b6b3a76400003414610633576040517f08c379a000000000000000000000000000000000000000000000000000000000815260040161062a90610ba4565b60405180910390fd5b600160003373ffffffffffffffffffffffffffffffffffffffff1673ffffffffffffffffffffffffffffffffffffffff168152602001908152602001600020600082815260200190815260200160002060000160009054906101000a900460ff16156106d4576040517f08c379a00000000000000000000000000000000000000000000000000000000081526004016106cb90610c10565b60405180910390fd5b604051806040016040528060011515815260200142815250600160003373ffffffffffffffffffffffffffffffffffffffff1673ffffffffffffffffffffffffffffffffffffffff168152602001908152602001600020600083815260200190815260200160002060008201518160000160006101000a81548160ff02191690831515021790555060208201518160010155905050803373ffffffffffffffffffffffffffffffffffffffff167f5677b5d4cf976ac32defbd95a6a5aaf0d1fee450a11fc26f3c11aae6e6c33d06346040516107b09190610a08565b60405180910390a350565b670de0b6b3a764000081565b600080fd5b600073ffffffffffffffffffffffffffffffffffffffff82169050919050565b60006107f7826107cc565b9050919050565b610807816107ec565b811461081257600080fd5b50565b600081359050610824816107fe565b92915050565b6000819050919050565b61083d8161082a565b811461084857600080fd5b50565b60008135905061085a81610834565b92915050565b60008060408385031215610877576108766107c7565b5b600061088585828601610815565b92505060206108968582860161084b565b9150509250929050565b600060ff82169050919050565b6108b6816108a0565b82525050565b60006020820190506108d160008301846108ad565b92915050565b6108e0816108a0565b81146108eb57600080fd5b50565b6000813590506108fd816108d7565b92915050565b6000806040838503121561091a576109196107c7565b5b60006109288582860161084b565b9250506020610939858286016108ee565b9150509250929050565b60008115159050919050565b61095881610943565b82525050565b6000602082019050610973600083018461094f565b92915050565b610982816107ec565b82525050565b600060208201905061099d6000830184610979565b92915050565b6109ac8161082a565b82525050565b60006040820190506109c7600083018561094f565b6109d460208301846109a3565b9392505050565b6000602082840312156109f1576109f06107c7565b5b60006109ff8482850161084b565b91505092915050565b6000602082019050610a1d60008301846109a3565b92915050565b600082825260208201905092915050565b7f4f6e6c79206f776e65722063616e207769746864726177000000000000000000600082015250565b6000610a6a601783610a23565b9150610a7582610a34565b602082019050919050565b60006020820190508181036000830152610a9981610a5d565b9050919050565b7f596f75206d7573742070617920746f207265636f726420796f7572207265737560008201527f6c74000000000000000000000000000000000000000000000000000000000000602082015250565b6000610afc602283610a23565b9150610b0782610aa0565b604082019050919050565b60006020820190508181036000830152610b2b81610aef565b9050919050565b7f4d757374207061792065786163746c7920312045544820746f20656e7465722060008201527f746865207175697a000000000000000000000000000000000000000000000000602082015250565b6000610b8e602883610a23565b9150610b9982610b32565b604082019050919050565b60006020820190508181036000830152610bbd81610b81565b9050919050565b7f416c7265616479207061696420666f722074686973207175697a000000000000600082015250565b6000610bfa601a83610a23565b9150610c0582610bc4565b602082019050919050565b60006020820190508181036000830152610c2981610bed565b905091905056fea26469706673582212208e2b26e34c4c42106677c44c69ff0b09f2098475bfbf90fc57b7195e516bcf2e64736f6c63430008150033",
  "immutableReferences": {},
  "source": "// SPDX-License-Identifier: MIT\r\npragma solidity ^0.8.0;\r\n\r\ncontract QuizManager {\r\n    address public owner;\r\n    uint256 public constant ENTRY_FEE = 1 ether;\r\n\r\n    struct QuizPayment {\r\n        bool paid;\r\n        uint256 timestamp;\r\n    }\r\n\r\n    // Mapping: user address => quizId => Payment status\r\n    mapping(address => mapping(uint256 => QuizPayment)) public payments;\r\n    \r\n    // Mapping: user address => quizId => score\r\n    mapping(address => mapping(uint256 => uint8)) public scores;\r\n\r\n    event PaymentReceived(address indexed user, uint256 indexed quizId, uint256 amount);\r\n    event ScoreRecorded(address indexed user, uint256 indexed quizId, uint8 score);\r\n\r\n    constructor() {\r\n        owner = msg.sender;\r\n    }\r\n\r\n    function payForQuiz(uint256 quizId) external payable {\r\n        require(msg.value == ENTRY_FEE, \"Must pay exactly 1 ETH to enter the quiz\");\r\n        require(!payments[msg.sender][quizId].paid, \"Already paid for this quiz\");\r\n\r\n        payments[msg.sender][quizId] = QuizPayment({\r\n            paid: true,\r\n            timestamp: block.timestamp\r\n        });\r\n\r\n        emit PaymentReceived(msg.sender, quizId, msg.value);\r\n    }\r\n\r\n    function recordResult(uint256 quizId, uint8 score) external {\r\n        require(payments[msg.sender][quizId].paid, \"You must pay to record your result\");\r\n        \r\n        scores[msg.sender][quizId] = score;\r\n        emit ScoreRecorded(msg.sender, quizId, score);\r\n    }\r\n\r\n    function hasPaid(address user, uint256 quizId) external view returns (bool) {\r\n        return payments[user][quizId].paid;\r\n    }\r\n\r\n    function getScore(address user, uint256 quizId) external view returns (uint8) {\r\n        return scores[user][quizId];\r\n    }\r\n\r\n    function withdraw() external {\r\n        require(msg.sender == owner, \"Only owner can withdraw\");\r\n        payable(owner).transfer(address(this).balance);\r\n    }\r\n}\r\n",
  "sourcePath": "C:\\Users\\epimix\\source\\repos\\TPAspReact\\QuizRush\\blockchain\\contracts\\QuizManager.sol",
  "compiler": {
    "name": "solc",
    "version": "0.8.21+commit.d9974bed.Emscripten.clang"
  },
  "schemaVersion": "3.4.16",
  "updatedAt": "2026-03-08T14:25:45.356Z",
  "networkType": "ethereum",
  "devdoc": {
    "kind": "dev",
    "methods": {},
    "version": 1
  },
  "userdoc": {
    "kind": "user",
    "methods": {},
    "version": 1
  }
}